:100000000C9446000C9465000C9465000C946700F9
:100010000C9465000C9465000C9465000C946500CC
:100020000C9465000C9465000C9465000C946500BC
:100030000C9465000C9465000C9465000C946500AC
:100040000C9465000C9465000C9465000C9465009C
:100050000C9465000C9465000C9465000C9465008C
:100060000C9465000C9465000C9465000C9465007C
:100070000C9465000C9465000C9465000C9465006C
:100080000C9465000C9465000C94650011241FBE4F
:10009000CFEFD0E1DEBFCDBF15E0A0E0B1E0E8E2F8
:1000A000F1E100E00BBF02C007900D92A633B1074B
:1000B000D9F725E0A6E3B5E001C01D92A834B20748
:1000C000E1F70E944A080C948B080C9400001F92E0
:1000D0000F920FB60F9211240BB60F922F933F93EE
:1000E0004F935F936F937F938F939F93AF93BF9340
:1000F000EF93FF93F8940E94BA067894FF91EF91E2
:10010000BF91AF919F918F917F916F915F914F912F
:100110003F912F910F900BBE0F900FBE0F901F902D
:10012000189580E895E20E9411088FEF8ABB1BBAF0
:1001300012BA0E94CE000E94F0060E945C070E9444
:10014000D0010E94B7000C9481010E949F01813070
:1001500041F0823049F00E949F018111FCCF0C9444
:100160008F030E94AD01F7CF0E94BF01F4CF109220
:100170006100379A86B1876086B93E9A089597B133
:100180008770987F892B87B9369A3699FECF84B1CC
:1001900095B19695879596958795089510927100DB
:1001A00080E280937000E4E7F0E0808184608083E7
:1001B0000895F89485EA809374008091740087FF15
:1001C000FCCF089584E98093740078940895CF93C8
:1001D000C82FCC0F613009F4C1600E94D900C093D0
:1001E000730085E8809374008091740087FFFCCFD2
:1001F00090917100987F81E0983109F080E0CF9173
:10020000089584E8809374008091740087FFFCCF88
:10021000809173000895CF92DF92EF92FF920F9337
:100220001F93CF93DF93C62F8A0161E00E94E700FE
:10023000811531F184EC809374006801E12CF12C7C
:10024000C150DD0BEC16FD0694F084E88093740039
:10025000C00FD11F0E9401018883DF91CF911F91B0
:100260000F91FF90EF90DF90CF900C94E2000E94EE
:100270000101F60181936F01FFEFEF1AFF0AE2CF50
:10028000DF91CF911F910F91FF90EF90DF90CF9072
:1002900008958093730084E88093740080917400C3
:1002A00087FFFCCF90917100987F81E0983209F030
:1002B00080E00895FF920F931F93CF93DF93062F53
:1002C000F42E152F60E00E94E7008115A1F0CF2DDC
:1002D000D12F0C0F1D2F111DC017D10729F08991A7
:1002E0000E9449018111F8CFDF91CF911F910F91A9
:1002F000FF900C94E200DF91CF911F910F91FF903E
:1003000008958BEF81BBF89489B7846089BF88B763
:10031000846088BFEAE6F0E0808180837894089565
:1003200080E00E94BF00893840F491E0883708F0EF
:1003300090E0892F880F880F089583E0089581E069
:100340000E94BF00893838F491E0883708F090E0C7
:10035000892F880F089581E0089580913F0593E0EB
:10036000980F93708C7F892B80933F05982F937003
:10037000933021F48C7F826080933F0508958091B3
:100380003F0591E0980F93708C7F892B80933F05F8
:10039000982F9370933019F48C7F80933F050895C4
:1003A000E7E3F5E010828DEF82838EEF83838FEF9A
:1003B000848380EF85838AE0868381EA8783EFE305
:1003C000F5E080818C7F80830895CF93DF9348E3AD
:1003D00051E060E070E080E090E00E949007C8E0AB
:1003E000D0E048E051E060E070E0CE010E9490076C
:1003F0002896C837D105A9F740E351E060E070E0E6
:1004000088E790E00E94900740E151E068E070E0EA
:1004100080E090E00E94900740E151E060E170E0F0
:1004200080E090E00E94900748E151E068E070E0D1
:1004300088E790E00E94900748E151E060E170E0B9
:1004400088E790E00E94900748E251E068E170E0A0
:1004500080E090E00E949007C8E0D0E040E051E0EA
:1004600068E170E0CE010E9490072896C837D10558
:10047000A9F740E251E068E170E088E790E0DF91A1
:10048000CF910C949007AF92BF92CF92DF92EF92F0
:10049000FF920F931F93CF93DF93C82F48E351E050
:1004A00068E070E086E090E00E94900748E251E04A
:1004B00060E170E086E090E00E9490073EE0E32E6D
:1004C000F12C01E010E0D0E0C017D1070CF043C0E0
:1004D0008E0183E0000F111F8A95E1F7680186E025
:1004E000C80ED11C40E351E068E070E0C6010E94F4
:1004F0009007045F1F4F40E151E060E070E0C801E9
:100500000E94900748E251E060E170E086E090E0F0
:100510000E9490079EE0A92EB12CEE24E394F12CCA
:10052000CE15DF052CF540E251E060E170E0C60138
:100530000E94900740E151E068E170E0C801DF915E
:10054000CF911F910F91FF90EF90DF90CF90BF90D0
:10055000AF900C94900748E051E068E070E0C7016C
:100560000E9490070F5F1F4F88E0E80EF11CACCF90
:1005700040E051E060E170E0C5010E9490078FEF1C
:10058000E81AF80A88E0A80EB11CCACFCF92DF9211
:10059000EF92FF920F931F93CF93DF93C82ED12C2E
:1005A00098E0899FE001112448E251E067E070E0A3
:1005B000CE010C960E9490076496EE24E394F12CF1
:1005C0000EE010E00C191D09E016F106C4F140E23E
:1005D00051E067E070E088E790E00E94900740E11A
:1005E00051E06FE070E081E690E00E94900748E201
:1005F00051E061E170E081E690E00E94900740E008
:1006000051E061E170E088E690E00E94900740E0F0
:1006100051E061E170E080E790E00E94900740E0E7
:1006200051E061E170E088E790E0DF91CF911F91A8
:100630000F91FF90EF90DF90CF900C94900740E0E7
:1006400051E067E070E0CE010E9490078FEFE81A5A
:10065000F80A2896B9CFFF920F931F93CF93DF9399
:10066000C82F40E455E06FE070E085E790E00E941D
:10067000900740E455E06FE070E08DE690E00E9466
:10068000900740E455E06FE070E085E690E00E945E
:1006900090070E945C07D0E005E710E08C2F6AE02D
:1006A0000E947608F82EE92FF0E0EE0FFF1FE050D1
:1006B000FB4F408151816FE070E0C80128E0D29F7C
:1006C0008019910911240E9490078C2FCF2DDF5F94
:1006D0008A3020F7DF91CF911F910F91FF900C94FA
:1006E0005C07CF93DF93EC0180913705811103C044
:1006F000DF91CF9108950E949001833039F08430CA
:1007000059F00E9490018111FCCFEECF8881815079
:1007100088830E942B03F5CF88818F5FF9CF0E94D9
:1007200051070E94E50184E00E94430240EC52E040
:100730006CE070E08AE090E00E94900748EE52E0A2
:100740006CE070E082E190E00E94900748EB52E09C
:100750006CE070E08AE190E00E94900740E652E091
:100760006CE070E082E290E00E94900748EF52E077
:1007700064E070E080E390E00E94900740EF52E078
:1007800064E070E088E390E00E94900748EE52E059
:1007900064E070E080E490E00E94900740EE52E058
:1007A00064E070E088E490E00E94900740E455E047
:1007B00064E070E08AE690E00E94900740ED52E02D
:1007C0006CE070E080E390E00E94900748EE52E019
:1007D0006CE070E088E390E00E94900748EC52E003
:1007E0006CE070E080E490E00E94900740EC52E002
:1007F0006CE070E088E490E00E94900748EE52E0E0
:100800006CE070E080E590E00E94900748EB52E0D9
:100810006CE070E088E590E00E94900740EE52E0C6
:100820006CE070E080E690E00E94900740E455E0C4
:100830006CE070E08AE690E00E94900740EB52E0A6
:1008400064E170E080E390E00E94900748EA52E0A3
:1008500064E170E088E390E00E94900748EF52E086
:1008600064E170E080E490E00E94900740EA52E08A
:1008700064E170E088E490E00E94900740EA52E072
:1008800064E170E080E590E00E94900740E455E06C
:1008900064E170E08AE690E00E94900780913F0555
:1008A0008370813051F0823089F040E151E064E0A2
:1008B00070E0811531F00C945C0740E151E06CE090
:1008C00070E082E790E00E949007F5CF40E151E0B0
:1008D00064E170E0F6CF8150873008F0C4C0E82FA3
:1008E000F0E0E357F74F0C94820884E00E94C602C0
:1008F00048E952E064E070E08FE290E00E949007E7
:1009000040E952E064E070E087E390E00E949007E5
:1009100048ED52E064E070E08FE390E00E949007C1
:1009200040ED52E064E070E087E490E00E949007C0
:1009300048EB52E064E070E08FE490E00E949007A2
:1009400048E852E064E070E087E590E00E9490079C
:1009500040E852E064E070E08FE590E00E9490078C
:10096000809139050C942B0384E00E94C60248E76D
:1009700052E064E070E08FE290E00E94900748EE61
:1009800052E064E070E087E390E00E94900740E767
:1009900052E064E070E08FE390E00E94900748EE40
:1009A00052E064E070E087E490E00E94900748EB3A
:1009B00052E064E070E08FE490E00E94900748E825
:1009C00052E064E070E087E590E00E94900740E824
:1009D00052E064E070E08FE590E00C94900784E0D2
:1009E0000E94C60240ED52E064E070E08FE290E0C9
:1009F0000E94900740EA52E064E070E087E390E0F4
:100A00000E94900748EB52E064E070E08FE390E0D2
:100A10000E94900740EA52E064E070E087E490E0D2
:100A20000E94900740E852E064E070E08FE490E0BC
:100A3000D4CF87E00E94C60280913C058F7092CF90
:100A400087E00E94C60280913C058295F7CF85E041
:100A50000E94C60280913D0585CF85E00E94C602B6
:100A600080913E057FCF0895CF93C82F0E945107F4
:100A70000E94E501C53009F453C140F4C11509F4E1
:100A800043C0C43009F400C1CF910895C730E1F7E5
:100A900087E00E94430240ED52E06CE070E08AE0A3
:100AA00090E00E94900748EE52E06CE070E082E136
:100AB00090E00E94900748EC52E06CE070E08AE120
:100AC00090E00E94900740EC52E06CE070E082E21F
:100AD00090E00E94900748EE52E06CE070E08AE2FD
:100AE00090E00E94900748EB52E06CE070E082E3F7
:100AF00090E00E94900740EE52E06CE070E08AE3E4
:100B000090E0CF910C94900784E00E94430240EC67
:100B100052E06CE070E08AE090E00E94900748EEBE
:100B200052E06CE070E082E190E00E94900748EBB8
:100B300052E06CE070E08AE190E00E94900740E6AD
:100B400052E06CE070E082E290E00E94900748EF93
:100B500052E064E070E080E390E00E94900740EF94
:100B600052E064E070E088E390E00E94900748EE75
:100B700052E064E070E080E490E00E94900740EE74
:100B800052E064E070E088E490E00E94900740E169
:100B900051E064E070E082E790E00E94900740ED51
:100BA00052E06CE070E080E390E00E94900748EE35
:100BB00052E06CE070E088E390E00E94900748EC1F
:100BC00052E06CE070E080E490E00E94900740EC1E
:100BD00052E06CE070E088E490E00E94900748EEFC
:100BE00052E06CE070E080E590E00E94900748EBF6
:100BF00052E06CE070E088E590E00E94900740EEE3
:100C000052E06CE070E080E690E00E94900740E4E3
:100C100055E06CE070E08AE690E00E94900740EBBF
:100C200052E064E170E080E390E00E94900748EABF
:100C300052E064E170E088E390E00E94900748EFA2
:100C400052E064E170E080E490E00E94900740EAA6
:100C500052E064E170E088E490E00E94900740EA8E
:100C600052E064E170E080E590E00E94900740E48B
:100C700055E064E170E08AE690E00E9490071092EF
:100C80003705CF910C945C0784E00E94430248EF43
:100C900052E06CE070E08AE090E00E94900740EF44
:100CA00052E06CE070E082E190E00E94900748EE34
:100CB00052E06CE070E08AE190E00E94900740EE24
:100CC00052E06CE070E082E290E00E94900781E0E8
:100CD000809337050E946B04809139050E942B0395
:100CE00089E395E00E94710382E0809337050E94BA
:100CF0006B0480913A050E942B038AE395E00E94E1
:100D0000710383E0809337050E946B0480913B055B
:100D10000E942B038BE395E00E947103C0E0A6CEF6
:100D200085E00E94430240EB52E06CE070E08AE014
:100D300090E00E94900748EA52E06CE070E082E1A7
:100D400090E00E94900748EF52E06CE070E08AE18A
:100D500090E00E94900740EA52E06CE070E082E28E
:100D600090E00E94900740EA52E06CE070E08AE276
:100D700090E0C7CE80913705811110C080913F056A
:100D80008370813039F0823039F0811109C084E0FC
:100D90000C94340587E0FCCF85E0FACF109237053C
:100DA000089502C0959587956A95E2F78170992715
:100DB00008959C0181E090E0FC0102C0EE0FFF1F4E
:100DC0006A95E2F7BF014130510521F4CF01822B32
:100DD000932B089560957095CB01822393230895FA
:100DE000CF93DF93CDB7DEB76B970FB6F894DEBF26
:100DF0000FBECDBF8BE1E4E1F5E0DE01119601907D
:100E00000D928A95E1F7AE014F5F5F4F6BE18CE386
:100E10000E945A016B960FB6F894DEBF0FBECDBF8D
:100E2000DF91CF910895CF93DF9300D000D000D011
:100E30000F92CDB7DEB787E0EFE2F5E0DE01119665
:100E400001900D928A95E1F7AE014F5F5F4F67E029
:100E50008CE30E945A0127960FB6F894DEBF0FBEAE
:100E6000CDBFDF91CF910895CF93DF93EC01942F05
:100E7000E42FE695E695E69580E8E89FF0011124D9
:100E8000E60FF11DCE0FDF1F422F50E09770692F44
:100E900070E0888190E00E94D9068883DF91CF912D
:100EA0000895E0E0F3E080E092E0DF019C011D9214
:100EB00021503040E1F70895EF92FF920F931F9376
:100EC000CF93DF930E941307C0E0D0E060E08CE393
:100ED0000E94E7008115A9F080E40E944901CE013B
:100EE00080509D4F7C0100E010E0F70181917F016F
:100EF0000E944901811529F00F5F1F4F003811052D
:100F0000A1F70E94E200C058DF4FC115F2E0DF07F1
:100F1000E9F6DF91CF911F910F91FF90EF90089527
:100F20005F926F927F928F929F92AF92BF92CF9279
:100F3000DF92EF92FF920F931F93CF93DF93682E70
:100F4000762E7A0100E010E080E8A82EB12C97E020
:100F5000892E912CC0E0D0E06701C00ED11E572C25
:100F6000500EF601208130E0C5010C2E02C095958F
:100F700087950A94E2F782239323892B89F0C40191
:100F80008C1B9D0B02C0359527958A95E2F7217041
:100F90003327452D6C2F660D80E093E00E943407C7
:100FA0002196C830D105E9F60F5F1F4F08301105B3
:100FB00089F6DF91CF911F910F91FF90EF90DF9015
:100FC000CF90BF90AF909F908F907F906F905F90E9
:100FD00008950E9451070C945C070F931F93CF93C1
:100FE000DF930E941307C4E0D0E060E08CE30E942E
:100FF000E700811569F080E40E94490100E810E0F3
:1010000080E00E944901811519F001501040C1F79C
:101010000E94E200219749F7DF91CF911F910F9134
:1010200008959093900089B988E18AB986E0809309
:10103000950008955D9BFECF8CB908955F9BFECF10
:101040008CB108950F931F93CF93DF93EC018C0124
:10105000060F171FC017D10729F4DF91CF911F91F9
:101060000F91089589910E941A08F4CF0F931F934E
:10107000CF93DF93EC018C01060F171FC017D10728
:1010800029F4DF91CF911F910F9108950E941E08BE
:101090008993F4CF0E94910080E00E9434058FEF85
:1010A0000E942B032FEF89E698E121508040904069
:1010B000E1F700C0000083E40E942B032FEF89E6D4
:1010C00098E1215080409040E1F700C0000089E0A5
:1010D0000E942B032FEF89E698E121508040904039
:1010E000E1F700C000000E94A500FDCF992778E03D
:1010F000880F991F961708F0961B881F7A95C9F7D5
:1011000080950895EE0FFF1F0024001C0BBE079072
:10111000F691E02D0994F894FFCF7504B404EF0420
:081120001905200527052D0526
:10112800000000000000FFFFFFFF000000000000BB
:10113800C0C0C0C0C0C0C0C003030303030303038F
:10114800030303030303FFFFC0C0C0C0C0C0FFFF09
:10115800FFFF030303030303FFFFC0C0C0C0C0C0F9
:10116800003C464A52623C00003C42423E023C007F
:10117800003C423C42423C00007E02040810200031
:10118800003C407C42423C00007E407C02027C00E5
:101198000042427E02020200007C023C02027C0005
:1011A8000038440810207C00001838381818180037
:1011B800007E040810207E00004224181818180029
:1011C8000042241818224200004242425A5A24007F
:1011D80000424242242418000042424242423E0059
:1011E800007E181818181800003E403C02027C00C7
:1011F800007E42427C424200007E4242427E04001F
:10120800007E42427E404000007E424242427E00D2
:10121800004262524A4642000042665A4242420036
:101228000040404040407E0000666870706866007C
:10123800000C0C0C0C6C7C00007E181818187E0032
:10124800004242427E424200007E42404E427E00C0
:10125800007E40407C404000007E407C40407E0054
:10126800007C424242427C00007E404040407E007A
:10127800007C427C42427C00007E42427E42420028
:10128800005E527252525E000040407E42427E0032
:10129800001E222222224200007E023C02027E0020
:1012A800001842464A526200004242427A4A7A0094
:1012B800007E42427E4040000066687070686600AA
:1012C8000042464A52624200007E42424242420086
:1012D800007E424242427E00004242427E4242003A
:1012E8000042665A42424200007E40404040400070
:1012F800007E404040407E00007E42427E424200E6
:10130800007E181818181800007E40407C407E00A7
:10131800007C427C42427C0000444444447E0200FB
:10132800FF01010101010101FDFDFDFDFDFDFD01C3
:10133800010101010101FDFDFDFDFDFDFDFDFDFDBD
:10134800FDFDFDFDFDFDFDFDFDFDFDFDFDFDFDFDC5
:10135800FDFDFDFDFDFDFDFDFD0101010101010199
:10136800FDFDFDFDFDFDFDFDFDFDFDFDFDFDFDFDA5
:10137800FDFDFDFDFD010101010101010101010169
:101388000101013D153D013D2121013D151D013D95
:10139800113D013D153D01013D253D01053D01FF83
:1013A800FF00000000000000FFFFFFFFFFFFFFFE3F
:1013B800FEFEFEFEFEFEFFFFFFFFFFFFFF01010135
:1013C80001010101FFFFFFFFFFFFFF010101010113
:1013D8000101FFFFFFFFFFFFFF000000000000000A
:1013E800FFFFFFFFFFFFFF01010101010101FFFFF7
:1013F800FFFFFFFFFF0000000000000000000000EA
:1014080000000000000000000000000000000000D4
:10141800000000000000000000000000000000FFC5
:10142800FF00000000000000FFFFFFFFFFFFFF00BC
:10143800000000000000FFFFFFFFFFFFFF000000AB
:1014480000000000FFFFFFFFFFFFFF00000000009B
:101458000000FFFFFFFFFFFFFF7F7F7F7F7F7F7F12
:10146800FFFFFFFFFFFFFF7F7F7F7F7F7F7F808002
:101478008080808080000000808080808080800064
:101488000000000000000000000000000000000054
:10149800000000000000000000000000000000FF45
:1014A800FF80808080808080BFBFBFBFBFBFBF80FC
:1014B800808080808080BFBFBFBFBFBFBF8080806B
:1014C80080808080BFBFBFBFBFBFBF80808080805B
:1014D8008080BFBFBFBFBFBFBF808080808080804B
:1014E800BFBFBFBFBFBFBF80808080808080BFBFBD
:1014F800BFBFBFBFBF808080B1B1BFBFBFB1B18028
:1015080080BFBF8383BFBE8080BFBFB3B3B3B38088
:10151800808080B0B080808080808080808080FFE4
:10152800400188018001780170016801600158015B
:101538005001480100AED580A81FD300408D14DBB0
:1015480040A4A6DA02818FD9F12000A0C01FAF0005
:0615580022000321007FC8
:00000001FF
