:100000000C9446000C9465000C9465000C946700F9
:100010000C9465000C9465000C9465000C946500CC
:100020000C9465000C9465000C9465000C946500BC
:100030000C9465000C9465000C9465000C946500AC
:100040000C9465000C9465000C9465000C9465009C
:100050000C9465000C9465000C9465000C9465008C
:100060000C9465000C9465000C9465000C9465007C
:100070000C9465000C9465000C9465000C9465006C
:100080000C9465000C9465000C94650011241FBE4F
:10009000CFEFD0E1DEBFCDBF15E0A0E0B1E0ECECEA
:1000A000F3E100E00BBF02C007900D92A634B10748
:1000B000D9F725E0A6E4B5E001C01D92A035B2074E
:1000C000E1F70E94B2090C94DD090C9400001F9224
:1000D0000F920FB60F9211240BB60F922F933F93EE
:1000E0004F935F936F937F938F939F93AF93BF9340
:1000F000EF93FF93F8940E94FF07FF91EF91BF9158
:10010000AF919F918F917F916F915F914F913F91AF
:100110002F910F900BBE0F900FBE0F901F90189550
:1001200080E895E20E9479091BBA8FEF8ABB12BA68
:100130000E9434010E9438080E94A4080E942002F4
:100140000E94A4000C94DB0110926100379A86B1E2
:10015000876086B93E9A089597B18770987F892BFA
:1001600087B9369A3699FECF84B195B19695879521
:1001700096958795089527E030E090E0AC01022E37
:1001800002C0559547950A94E2F7D89A40FF0CC0F3
:1001900042E04A95F1F74BB31BBA00C000C0000023
:1001A0002150310958F7089500C000004BB31BBA25
:1001B00042E04A95F1F7F3CFEF92FF920F931F932E
:1001C000CF93DF93CDB7DEB7E0970FB6F894DEBFDD
:1001D0000FBECDBF9C01FE01319680E3DF011D9271
:1001E0008A95E9F7D90115966C91159716969C9109
:1001F0007F018F019F01AF0180E07FEF961738F0FC
:10020000861710F0981728F4DA011C9204C0843085
:10021000C8F3DA017C93D9011C92D8011C928F5F3C
:100220004F5F5F4F2E5F3F4F0D5F1F4F8F3031F796
:100230008F01005D1F4FF70181917F010E94BB007C
:10024000E016F106C1F7F5E8FA95F1F70000E0963F
:100250000FB6F894DEBF0FBECDBFDF91CF911F91D7
:100260000F91FF90EF9008951092710080E28093BB
:100270007000E4E7F0E08081846080830895F89462
:1002800085EA809374008091740087FFFCCF089505
:1002900084E9809374000895CF93C82FCC0F613008
:1002A00009F4C1600E943F01C093730085E8809308
:1002B00074008091740087FFFCCF90917100987F4B
:1002C00081E0983109F080E0CF91089584E880932F
:1002D00074008091740087FFFCCF809173000895B3
:1002E000CF92DF92EF92FF920F931F93CF93DF9302
:1002F000C62F8A0161E00E944C018115B1F084ECA7
:10030000809374006801E12CF12CC150DD0BEC16D8
:10031000FD06A4F084E880937400C00FD11F0E94F2
:100320006601888384E980937400DF91CF911F91E7
:100330000F91FF90EF90DF90CF9008950E9466019B
:10034000F60181936F01FFEFEF1AFF0AE0CF809370
:10035000730084E8809374008091740087FFFCCF61
:1003600090917100987F81E0983209F080E00895C3
:10037000FF920F931F93CF93DF93062FF42E152F29
:1003800060E00E944C01811581F0CF2DD12F0C0F20
:100390001D2F111DC017D10729F089910E94A701B7
:1003A0008111F8CF84E980937400DF91CF911F9180
:1003B0000F91FF9008958BEF81BBF89489B784600B
:1003C00089BF88B7846088BFEAE6F0E080818083D7
:1003D0007894089580E00E94AC008058089581E0F0
:1003E0000E94AC00893838F491E0883708F090E03A
:1003F000892F880F089581E0089580914F0593E03B
:10040000980F93708C7F892B80934F05982F937052
:10041000933021F48C7F826080934F050895809102
:100420004F0591E0980F93708C7F892B80934F0537
:10043000982F9370933019F48C7F80934F05089513
:10044000E6E4F5E010828FEF828313821482158236
:1004500081E086838AE0878381EA8087EFE4F5E0A4
:1004600080818C7F80830895CF93DF9348E351E0B0
:1004700060E070E080E090E00E94D808C8E0D0E042
:1004800048E051E060E070E0CE010E94D808289674
:10049000C837D105A9F740E351E060E070E088E794
:1004A00090E00E94D80840E151E068E070E080E010
:1004B00090E00E94D80840E151E060E170E080E007
:1004C00090E00E94D80848E151E068E070E088E7D9
:1004D00090E00E94D80848E151E060E170E088E7D0
:1004E00090E00E94D80848E251E068E170E080E0C6
:1004F00090E00E94D808C8E0D0E040E051E068E118
:1005000070E0CE010E94D8082896C837D105A9F717
:1005100040E251E068E170E088E790E0DF91CF9140
:100520000C94D808AF92BF92CF92DF92EF92FF92D5
:100530000F931F93CF93DF93C82F48E351E068E0F8
:1005400070E086E090E00E94D80848E251E060E167
:1005500070E086E090E00E94D8083EE0E32EF12CA7
:1005600001E010E0D0E0C017D1070CF043C08E01CD
:1005700083E0000F111F8A95E1F7680186E0C80E3D
:10058000D11C40E351E068E070E0C6010E94D80849
:10059000045F1F4F40E151E060E070E0C8010E943D
:1005A000D80848E251E060E170E086E090E00E9407
:1005B000D8089EE0A92EB12CEE24E394F12CCE15A0
:1005C000DF052CF540E251E060E170E0C6010E94D9
:1005D000D80840E151E068E170E0C801DF91CF91B7
:1005E0001F910F91FF90EF90DF90CF90BF90AF9051
:1005F0000C94D80848E051E068E070E0C7010E9420
:10060000D8080F5F1F4F88E0E80EF11CACCF40E028
:1006100051E060E170E0C5010E94D8088FEFE81A50
:10062000F80A88E0A80EB11CCACFCF92DF92EF92F1
:10063000FF920F931F93CF93DF93C82ED12C98E096
:10064000899FE001112448E251E067E070E0CE01AB
:100650000C960E94D8082E96EE24E394F12C0EE01E
:1006600010E00C191D09E016F106C4F140E251E05A
:1006700067E070E088E790E00E94D80840E151E030
:100680006FE070E081E690E00E94D80848E251E017
:1006900061E170E081E690E00E94D80840E051E01E
:1006A00061E170E088E690E00E94D80840E051E007
:1006B00061E170E080E790E00E94D80840E051E0FE
:1006C00061E170E088E790E0DF91CF911F910F9199
:1006D000FF90EF90DF90CF900C94D80864E070E02A
:1006E000CE010E94310940E051E067E070E0CE01A8
:1006F00006960E94D8088FEFE81AF80A2896B3CF1A
:1007000064E070E085E790E00E943109E0914605E1
:10071000F0E0EE0FFF1FE05FFA4F4081518164E08F
:1007200070E085E790E00E94D8080C94A408FF923E
:100730000F931F93CF93DF93C82F6FE070E085E78F
:1007400090E00E9431096FE070E08DE690E00E9439
:1007500031096FE070E085E690E00E943109D0E059
:1007600005E710E08C2F6AE00E94BA09F82EE92F05
:10077000F0E0EE0FFF1FE05FFA4F408151816FE024
:1007800070E0C80128E0D29F8019910911240E94CD
:10079000D8088C2FCF2DDF5F8A3020F7DF91CF91E3
:1007A0001F910F91FF900C94A408CF93DF93EC015D
:1007B00080914605811103C0DF91CF91089578940F
:1007C0000E94EA018115A1F3288190914605945079
:1007D000923048F468E20E94C609820F8F708883C5
:1007E0000E949703E5CF6AE00E94C609820FF7CF07
:1007F0000E9499080E94340284E00E94920240ED17
:1008000052E06CE070E08AE090E00E94D80848EF87
:1008100052E06CE070E082E190E00E94D80848EC81
:1008200052E06CE070E08AE190E00E94D80840E776
:1008300052E06CE070E082E290E00E94D80848E06C
:1008400053E064E070E080E390E00E94D80840E06C
:1008500053E064E070E088E390E00E94D80848EF3D
:1008600052E064E070E080E490E00E94D80840EF3D
:1008700052E064E070E088E490E00E94D80864E010
:1008800070E08AE690E00E94310940EE52E06CE0B0
:1008900070E080E390E00E94D80848EF52E06CE0FE
:1008A00070E088E390E00E94D80848ED52E06CE0E8
:1008B00070E080E490E00E94D80840ED52E06CE0E7
:1008C00070E088E490E00E94D80848EF52E06CE0C5
:1008D00070E080E590E00E94D80848EC52E06CE0BF
:1008E00070E088E590E00E94D80840EF52E06CE0AC
:1008F00070E080E690E00E94D8086CE070E08AE644
:1009000090E00E94310940EC52E064E170E080E345
:1009100090E00E94D80848EB52E064E170E088E380
:1009200090E00E94D80848E053E064E170E080E481
:1009300090E00E94D80840EB52E064E170E088E467
:1009400090E00E94D80840EB52E064E170E080E55E
:1009500090E00E94D80864E170E08AE690E00E948E
:10096000310980914F058370813051F0823089F0D8
:1009700048E151E064E070E0811531F00C94A40886
:1009800048E151E06CE070E08AE690E00E94D8080F
:10099000F5CF48E151E064E170E0F6CF8091460583
:1009A0008111089578940E94EF01813049F08230DE
:1009B00051F00E94EF018111FCCF0E94F803EECFAD
:1009C0000E94FD01F6CF0E940F02F3CF81508730C5
:1009D00008F071C1E82FF0E0E152F64F0C94D40911
:1009E00084E00E94150348EA52E064E070E08FE280
:1009F00090E00E94D80840EA52E064E070E087E3AB
:100A000090E00E94D80848EE52E064E070E08FE386
:100A100090E00E94D80840EE52E064E070E087E485
:100A200090E00E94D80848EC52E064E070E08FE467
:100A300090E00E94D80848E952E064E070E087E561
:100A400090E00E94D80840E952E064E070E08FE551
:100A500090E00E94D808809148050C94970384E0A8
:100A60000E94150348E852E064E070E08FE290E0F5
:100A70000E94D80848EF52E064E070E087E390E01D
:100A80000E94D80840E852E064E070E08FE390E014
:100A90000E94D80848EF52E064E070E087E490E0FC
:100AA0000E94D80848EC52E064E070E08FE490E0E7
:100AB0000E94D80848E952E064E070E087E590E0E1
:100AC0000E94D80840E952E064E070E08FE590E0D1
:100AD0000E94D80880914905C0CF84E00E94150388
:100AE00040EE52E064E070E08FE290E00E94D808AF
:100AF00040EB52E064E070E087E390E00E94D808A9
:100B000048EC52E064E070E08FE390E00E94D80887
:100B100040EB52E064E070E087E490E00E94D80887
:100B200040E952E064E070E08FE490E00E94D80871
:100B300080914A0592CF87E00E94150348EB52E06E
:100B400064E070E087E490E00E94D80848EF52E04B
:100B500064E070E08FE490E00E94D80840EA52E040
:100B600064E070E087E590E00E94D80840E053E040
:100B700064E070E08FE590E00E94D80848E952E018
:100B800064E070E087E690E00E94D80840E952E017
:100B900064E070E08FE690E00E94D80880914B05F9
:100BA0005CCF87E00E94150340E053E064E070E012
:100BB00087E490E00E94D80840EF52E064E070E0E3
:100BC0008FE490E00E94D80840EC52E064E070E0CE
:100BD00087E590E00E94D80840EA52E064E070E0C7
:100BE0008FE590E00E94D80840EC52E064E070E0AD
:100BF00087E690E00E94D80840E952E064E070E0A7
:100C00008FE690E00E94D80880914C0526CF85E0C1
:100C10000E94150348EA51E064E070E087E390E049
:100C20000E94D80840EC52E064E070E08FE390E06E
:100C30000E94D80848E652E064E070E087E490E063
:100C40000E94D80880914D0508CF85E00E941503C9
:100C500040E053E064E070E087E390E00E94D80851
:100C600048EF52E064E070E08FE390E00E94D80823
:100C700040EA52E064E070E087E490E00E94D80827
:100C800040EE52E064E070E08FE490E00E94D8080B
:100C900040EB52E064E070E087E590E00E94D80805
:100CA00048ED51E064E070E08FE590E00E94D808E4
:100CB00080914E05D2CE0895CF93C82F86E495E05B
:100CC0000E94DC000E9499080E943402C53009F499
:100CD00058C140F4C11509F455C0C43009F40EC11F
:100CE000CF910895C730E1F7F89487E00E9492020F
:100CF00040EE52E06CE070E08AE090E00E94D8089C
:100D000048EF52E06CE070E082E190E00E94D80889
:100D100048ED52E06CE070E08AE190E00E94D80873
:100D200040ED52E06CE070E082E290E00E94D80872
:100D300048EF52E06CE070E08AE290E00E94D80850
:100D400048EC52E06CE070E082E390E00E94D8084A
:100D500040EF52E06CE070E08AE390E00E94D80837
:100D600084E0809346050E94E6048BE495E00E94AF
:100D7000D503F89485E0809346050E94E6048CE450
:100D800095E0FBC084E00E94920240ED52E06CE0EE
:100D900070E08AE090E00E94D80848EF52E06CE0F2
:100DA00070E082E190E00E94D80848EC52E06CE0EC
:100DB00070E08AE190E00E94D80840E752E06CE0E1
:100DC00070E082E290E00E94D80848E053E064E0DE
:100DD00070E080E390E00E94D80840E053E064E0D7
:100DE00070E088E390E00E94D80848EF52E064E0A9
:100DF00070E080E490E00E94D80840EF52E064E0A8
:100E000070E088E490E00E94D80848E151E064E096
:100E100070E08AE690E00E94D80840EE52E06CE074
:100E200070E080E390E00E94D80848EF52E06CE068
:100E300070E088E390E00E94D80848ED52E06CE052
:100E400070E080E490E00E94D80840ED52E06CE051
:100E500070E088E490E00E94D80848EF52E06CE02F
:100E600070E080E590E00E94D80848EC52E06CE029
:100E700070E088E590E00E94D80840EF52E06CE016
:100E800070E080E690E00E94D8086CE070E08AE6AE
:100E900090E00E94310940EC52E064E170E080E3B0
:100EA00090E00E94D80848EB52E064E170E088E3EB
:100EB00090E00E94D80848E053E064E170E080E4EC
:100EC00090E00E94D80840EB52E064E170E088E4D2
:100ED00090E00E94D80840EB52E064E170E080E5C9
:100EE00090E00E94D80864E170E08AE690E00E94F9
:100EF00031090E94A40810924605F2CEF89484E0CD
:100F00000E94920248E053E06CE070E08AE090E0DA
:100F10000E94D80840E053E06CE070E082E190E08D
:100F20000E94D80848EF52E06CE070E08AE190E05F
:100F30000E94D80840EF52E06CE070E082E290E05E
:100F40000E94D80881E0809346050E94E60488E468
:100F500095E00E94D503F89482E0809346050E94B4
:100F6000E60489E495E00E94D503F89483E0809339
:100F700046050E94E6048AE495E00E94D503F894B1
:100F8000BACFF89485E00E94920240EC52E06CE007
:100F900070E08AE090E00E94D80848EB52E06CE0F4
:100FA00070E082E190E00E94D80848E053E06CE0F5
:100FB00070E08AE190E00E94D80840EB52E06CE0DB
:100FC00070E082E290E00E94D80840EB52E06CE0D2
:100FD00070E08AE290E00E94D80886E0809346059F
:100FE0000E94E6048DE495E00E94D503F89487E022
:100FF000809346050E94E6048EE495E0BECF829B76
:10100000FECF80914605811110C080914F058370FD
:10101000813039F0823039F0811109C084E00C94BC
:101020005C0687E0FCCF85E0FACF10924605089574
:1010300002C0959587956A95E2F781709927089582
:101040009C01FA0181E090E0AC0102C0440F551F01
:101050006A95E2F7BA01309731F0319711F4242BF9
:10106000372BC90108956095709526233723F9CF52
:10107000CF93DF93CDB7DEB76B970FB6F894DEBF93
:101080000FBECDBF8BE1E4E2F5E0DE0111960190E9
:101090000D928A95E1F7AE014F5F5F4F6BE18CE3F4
:1010A0000E94B8016B960FB6F894DEBF0FBECDBF9D
:1010B000DF91CF910895CF93DF9300D000D000D07F
:1010C0000F92CDB7DEB787E0EFE3F5E0DE011196D2
:1010D00001900D928A95E1F7AE014F5F5F4F67E097
:1010E0008CE30E94B80127960FB6F894DEBF0FBEBE
:1010F000CDBFDF91CF910895CF93DF93EC01942F73
:10110000E42FE695E695E69580E8E89FF001112446
:10111000E60FF11DCE0FDF1F422F50E09770692FB1
:1011200070E0888190E00E9420088883DF91CF9151
:101130000895E0E1F3E080E092E0DF019C011D9280
:1011400021503040E1F70895EF92FF920F931F93E3
:10115000CF93DF930E945B08C0E0D0E060E08CE3B7
:101160000E944C018115A9F080E40E94A701CE01E4
:10117000805F9C4F7C0100E010E0F70181917F01CE
:101180000E94A701811529F00F5F1F4F003811053C
:10119000A1F70E944801C058DF4FC115F2E0DF07F8
:1011A000E9F6DF91CF911F910F91FF90EF90089595
:1011B0005F926F927F928F929F92AF92BF92CF92E7
:1011C000DF92EF92FF920F931F93CF93DF93682EDE
:1011D000762E7A0100E010E080E8A82EB12C97E08E
:1011E000892E912CC0E0D0E06701C00ED11E572C93
:1011F000500EF601208130E0C5010C2E02C09595FD
:1012000087950A94E2F782239323892B89F0C401FE
:101210008C1B9D0B02C0359527958A95E2F72170AE
:101220003327452D6C2F660D80E193E00E947C08EA
:101230002196C830D105E9F60F5F1F4F0830110520
:1012400089F6DF91CF911F910F91FF90EF90DF9082
:10125000CF90BF90AF909F908F907F906F905F9056
:101260000895FF920F931F93CF93DF93182FC62FEC
:1012700088E0F82EF60E08E0010FD12F20E04C2F69
:101280006D2F80E193E00E947C08DF5FD013F6CFE2
:10129000CF5FCF11F2CFDF91CF911F910F91FF90D0
:1012A00008950E9499080C94A4080F931F93CF935C
:1012B000DF930E945B08C4E0D0E060E08CE30E9412
:1012C0004C01811569F080E40E94A70100E810E05C
:1012D00080E00E94A701811519F001501040C1F76C
:1012E0000E944801219749F7DF91CF911F910F91FB
:1012F00008959093900089B988E18AB986E0809337
:10130000950008955D9BFECF8CB908955F9BFECF3D
:101310008CB108950F931F93CF93DF93EC018C0151
:10132000060F171FC017D10729F4DF91CF911F9126
:101330000F91089589910E948209F4CF0F931F9312
:10134000CF93DF93EC018C01060F171FC017D10755
:1013500029F4DF91CF911F910F9108950E94860982
:101360008993F4CF0E94900080E00E945C060E9466
:10137000CE04FACF992778E0880F991F961708F0C6
:10138000961B881F7A95C9F78095089587FB082ECC
:10139000062687FD819567FD61950E94BA090EF4C6
:1013A000919507FC81950895EE0FFF1F0024001C06
:1013B0000BBE0790F691E02D0994F894FFCFF0044E
:0C13C0002F056D059B05D10507062506CD
:1013CC00000000000000FFFFFFFF00000000000015
:1013DC00C0C0C0C0C0C0C0C00303030303030303E9
:1013EC00030303030303FFFFC0C0C0C0C0C0FFFF63
:1013FC00FFFF030303030303FFFFC0C0C0C0C0C053
:10140C00003C464A52623C00003C42423E023C00D8
:10141C00003C423C42423C00007E0204081020008A
:10142C00003C407C42423C00007E407C02027C003E
:10143C000042427E02020200007C023C02027C005E
:10144C000038440810207C00001838381818180090
:10145C00FF818181818181FF007E040810207E0044
:10146C0000422418181818000042241818244200AE
:10147C00004242425A5A240000424242242418009C
:10148C000042424242423E00007E181818181800D2
:10149C00003E403C02027C00007E42427C42420004
:1014AC00007E4242427E0400007E42427E4040006A
:1014BC00007E424242427E00004262524A46420054
:1014CC000042665A424242000040404040407E008A
:1014DC000066687070686600000C0C0C0C6C7C006C
:1014EC00007E181818187E00004242427E424200CC
:1014FC00007E42404E427E00007E40407C404000D8
:10150C00007E407C40407E00007C424242427C0097
:10151C00007E404040407E00007C427C42427C0089
:10152C00007E42427E424200001C2424247E420063
:10153C00005E527252525E000040407E42427E007B
:10154C00001E222222224200007E023C02027E0069
:10155C00001842464A526200004242427A4A7A00DD
:10156C00007E42427E4040000066687070686600F3
:10157C000042464A52624200007E424242424200CF
:10158C00007E424242427E00004242427E42420083
:10159C000042665A42424200007E404040404000B9
:1015AC00007E404040407E00007E42427E4242002F
:1015BC00007E181818181800007E40407C407E00F1
:1015CC00007C427C42427C0000444444447E020045
:1015DC00FF01010101010101FDFDFDFDFDFDFD010D
:1015EC00010101010101FDFDFDFDFDFDFDFDFDFD07
:1015FC00FDFDFDFDFDFDFDFDFDFDFDFDFDFDFDFD0F
:10160C00FDFDFDFDFDFDFDFDFD01010101010101E2
:10161C00FDFDFDFDFDFDFDFDFDFDFDFDFDFDFDFDEE
:10162C00FDFDFDFDFD0101010101010101010101B2
:10163C000101013D153D013D2121013D151D013DDE
:10164C00113D013D153D01013D253D01053D01FFCC
:10165C00FF00000000000000FFFFFFFFFFFFFFFE88
:10166C00FEFEFEFEFEFEFFFFFFFFFFFFFF0101017E
:10167C0001010101FFFFFFFFFFFFFF01010101015C
:10168C000101FFFFFFFFFFFFFF0000000000000053
:10169C00FFFFFFFFFFFFFF01010101010101FFFF40
:1016AC00FFFFFFFFFF000000000000000000000033
:1016BC00000000000000000000000000000000001E
:1016CC00000000000000000000000000000000FF0F
:1016DC00FF00000000000000FFFFFFFFFFFFFF0006
:1016EC00000000000000FFFFFFFFFFFFFF000000F5
:1016FC0000000000FFFFFFFFFFFFFF0000000000E5
:10170C000000FFFFFFFFFFFFFF7F7F7F7F7F7F7F5B
:10171C00FFFFFFFFFFFFFF7F7F7F7F7F7F7F80804B
:10172C0080808080800000008080808080808000AD
:10173C00000000000000000000000000000000009D
:10174C00000000000000000000000000000000FF8E
:10175C00FF80808080808080BFBFBFBFBFBFBF8045
:10176C00808080808080BFBFBFBFBFBFBF808080B4
:10177C0080808080BFBFBFBFBFBFBF8080808080A4
:10178C008080BFBFBFBFBFBFBF8080808080808094
:10179C00BFBFBFBFBFBFBF80808080808080BFBF06
:1017AC00BFBFBFBFBF808080B1B1BFBFBFB1B18071
:1017BC0080BFBF8383BFBE8080BFBFB3B3B3B380D2
:1017CC00808080B0B080808080808080808080FF2E
:1017DC0040018801800178017001680160015801A5
:1017EC005001480100AED580A81FD300408D14DBFA
:1017FC0040A4A6DA02818FD9F12000A0C01FAF004F
:06180C0022000321007F11
:00000001FF
