:100000000C9446000C945D000C945D000C945D0013
:100010000C945D000C945D000C945D000C945D00EC
:100020000C945D000C945D000C945D000C945D00DC
:100030000C945D000C945D000C945D000C945D00CC
:100040000C945D000C945D000C945D000C945D00BC
:100050000C945D000C945D000C945D000C945D00AC
:100060000C945D000C945D000C945D000C945D009C
:100070000C945D000C945D000C945D000C945D008C
:100080000C945D000C945D000C945D0011241FBE67
:10009000CFEFD0E1DEBFCDBF13E0A0E0B1E0EAEEEC
:1000A000F4E000E00BBF02C007900D92A232B1074E
:1000B000D9F70E9467020C9473020C9400008FEF32
:1000C0008ABB1BBA80E895E20E942E020E946C0057
:1000D0000E9431010C949D011092710086E480937E
:1000E000700084E080937400089584EA8093740023
:1000F0008091740087FFFCCF089584E98093740099
:100100000895CF93DF93C82FD62F0E9475008C2FB0
:10011000880FD13009F481609FEF9BBB80937300FF
:1001200084E88093740090917100987F81E0983109
:1001300009F080E0DF91CF91089584E88093740006
:100140008091740087FFFCCF809173000895CF9257
:10015000DF92EF92FF920F931F93CF93DF93C62FFF
:100160008A0161E00E9481008115B1F084EC8093E6
:1001700074006801E12CF12CC150DD0BEC16FD067A
:10018000A4F084E880937400C00FD11F0E949D00EA
:10019000888384E980937400DF91CF911F910F9140
:1001A000FF90EF90DF90CF9008950E949D00F601A0
:1001B00081936F01FFEFEF1AFF0AE0CF8093730086
:1001C00084E8809374008091740087FFFCCF909145
:1001D0007100987F81E0983209F080E00895FF92E5
:1001E0000F931F93CF93DF93062FF42E152F60E00C
:1001F0000E948100811581F0CF2DD12F0C0F1D2F72
:10020000111DC017D10729F089910E94DE008111CC
:10021000F8CF84E980937400DF91CF911F910F9103
:10022000FF90089502C0959587956A95E2F78170D1
:10023000992708959C0181E090E0FC0102C0EE0F37
:10024000FF1F6A95E2F7BF014130510521F4CF014C
:10025000822B932B089560957095CB018223932375
:100260000895CF93DF93CDB7DEB76B970FB6F894B1
:10027000DEBF0FBECDBF8BE1E0E0F3E0DE01119603
:1002800001900D928A95E1F7AE014F5F5F4F6BE1F0
:100290008CE30E94EF006B960FB6F894DEBF0FBEA2
:1002A000CDBFDF91CF910895CF93DF9300D000D0E1
:1002B00000D00F92CDB7DEB787E0EBE1F3E0DE01CF
:1002C000119601900D928A95E1F7AE014F5F5F4F55
:1002D00067E08CE30E94EF0027960FB6F894DEBF2C
:1002E0000FBECDBFDF91CF910895CF93DF93EC0187
:1002F000942FE42FE695E695E69580E8E89FF001D7
:100300001124E60FF11DCE0FDF1F422F50E0977032
:10031000692F70E0888190E00E941A018883DF9144
:10032000CF910895E0E0F1E080E092E0DF019C01F0
:100330001D9221503040E1F70895EF92FF920F9304
:100340001F93CF93DF930E945401C0E0D0E060E0A0
:100350008CE30E9481008115A9F080E40E94DE00F8
:10036000CE0180509F4F7C0100E010E0F7018191A9
:100370007F010E94DE00811105C00F5F1F4F003812
:100380001105A1F70E947D00C058DF4FC115F2E0B2
:10039000DF07E9F6DF91CF911F910F91FF90EF906A
:1003A00008955F926F927F928F929F92AF92BF92C9
:1003B000CF92DF92EF92FF920F931F93CF93DF9331
:1003C000682E762E7A0100E010E080E8A82EB12C8D
:1003D00097E0892E912CC0E0D0E06701C00ED11EBD
:1003E000572C500EF601208130E0C5010C2E02C0C2
:1003F000959587950A94E2F782239323892B89F0B8
:10040000C4018C1B9D0B02C0359527958A95E2F798
:1004100021703327452D6C2F660D80E091E00E94FE
:1004200075012196C830D105E9F60F5F1F4F0830DE
:10043000110589F6DF91CF911F910F91FF90EF90F9
:10044000DF90CF90BF90AF909F908F907F906F90F4
:100450005F9008950E9492010C949D0190939000EA
:1004600089B988E18AB986E08093950008955D9BFB
:10047000FECF8CB908955F9BFECF8CB108950F938A
:100480001F93CF93DF93EC018C01060F171FC0174A
:10049000D10729F4DF91CF911F910F910895899190
:1004A0000E943702F4CF0F931F93CF93DF93EC0199
:1004B0008C01060F171FC017D10729F4DF91CF91C8
:1004C0001F910F9108950E943B028993F4CF2FEF63
:1004D00083ED90E3215080409040E1F700C00000A0
:0A04E0000E945F00FFCFF894FFCFE9
:1004EA00FF01010101010101FDFDFDFDFDFDFD0110
:1004FA00010101010101FDFDFDFDFDFDFDFDFDFD0A
:10050A00FDFDFDFDFDFDFDFDFDFDFDFDFDFDFDFD11
:10051A00FDFDFDFDFDFDFDFDFD01010101010101E5
:10052A00FDFDFDFDFDFDFDFDFDFDFDFDFDFDFDFDF1
:10053A00FDFDFDFDFD0101010101010101010101B5
:10054A000101013D153D013D2121013D151D013DE1
:10055A00113D013D153D01013D253D01053D01FFCF
:10056A00FF00000000000000FFFFFFFFFFFFFFFE8B
:10057A00FEFEFEFEFEFEFFFFFFFFFFFFFF01010181
:10058A0001010101FFFFFFFFFFFFFF01010101015F
:10059A000101FFFFFFFFFFFFFF0000000000000056
:1005AA00FFFFFFFFFFFFFF01010101010101FFFF43
:1005BA00FFFFFFFFFF000000000000000000000036
:1005CA000000000000000000000000000000000021
:1005DA00000000000000000000000000000000FF12
:1005EA00FF00000000000000FFFFFFFFFFFFFF0009
:1005FA00000000000000FFFFFFFFFFFFFF000000F8
:10060A0000000000FFFFFFFFFFFFFF0000000000E7
:10061A000000FFFFFFFFFFFFFF7F7F7F7F7F7F7F5E
:10062A00FFFFFFFFFFFFFF7F7F7F7F7F7F7F80804E
:10063A0080808080800000008080808080808000B0
:10064A0000000000000000000000000000000000A0
:10065A00000000000000000000000000000000FF91
:10066A00FF80808080808080BFBFBFBFBFBFBF8048
:10067A00808080808080BFBFBFBFBFBFBF808080B7
:10068A0080808080BFBFBFBFBFBFBF8080808080A7
:10069A008080BFBFBFBFBFBFBF8080808080808097
:1006AA00BFBFBFBFBFBFBF80808080808080BFBF09
:1006BA00BFBFBFBFBF808080B1B1BFBFBFB1B18074
:1006CA0080BFBF8383BFBE8080BFBFB3B3B3B380D5
:1006DA00808080B0B080808080808080808080FF31
:1006EA0000AED580A81FD300408D14DB40A4A6DA43
:1006FA0002818FD9F12000A0C01FAF002200032180
:02070A00007F6E
:00000001FF
