:100000000C9446000C9467000C946F000C949700BD
:100010000C9465000C9465000C9465000C946500CC
:100020000C9465000C9465000C9465000C946500BC
:100030000C9465000C9465000C9465000C946500AC
:100040000C9465000C9465000C9465000C9465009C
:100050000C9465000C9465000C9465000C9465008C
:100060000C9465000C9465000C9465000C9465007C
:100070000C9465000C9465000C9465000C9465006C
:100080000C9465000C9465000C94650011241FBE4F
:10009000CFEFD0E1DEBFCDBF15E0A0E0B1E0ECE9ED
:1000A000FFE000E00BBF02C007900D92A633B1073E
:1000B000D9F725E0A6E3B5E001C01D92A834B20748
:1000C000E1F70E94BD070C94CC070C9400008F93BD
:1000D00081E0809336058FEF8BBB8F9118951F922F
:1000E0000F920FB60F9211240BB60F922F933F93DE
:1000F0004F935F936F937F938F939F93AF93BF9330
:10010000EF93FF930E946700FF91EF91BF91AF9132
:100110009F918F917F916F915F914F913F912F911F
:100120000F900BBE0F900FBE0F901F9018951F924F
:100130000F920FB60F9211240BB60F922F933F938D
:100140004F935F936F937F938F939F93AF93BF93DF
:10015000EF93FF930E946700FF91EF91BF91AF91E2
:100160009F918F917F916F915F914F913F912F91CF
:100170000F900BBE0F900FBE0F901F9018958FEF32
:100180008ABB1BBA12BA0E94C7000C948401109259
:100190006100379A86B1876086B93E9A089597B113
:1001A0008770987F892B87B9369A3699FECF84B1AC
:1001B00095B19695879596958795089510927100BB
:1001C00080E280937000E4E7F0E0808184608083C7
:1001D000089585EA809374008091740087FFFCCFB6
:1001E000089584E9809374000895CF93C82FCC0FAD
:1001F000613009F4C1600E94E900C093730085E892
:10020000809374008091740087FFFCCF90917100FF
:10021000987F81E0983109F080E0CF91089584E8DB
:10022000809374008091740087FFFCCF80917300ED
:100230000895CF92DF92EF92FF920F931F93CF9387
:10024000DF93C62F8A0161E00E94F5008115B1F0AD
:1002500084EC809374006801E12CF12CC150DD0B1B
:10026000EC16FD06A4F084E880937400C00FD11F43
:100270000E940F01888384E980937400DF91CF91FD
:100280001F910F91FF90EF90DF90CF9008950E9403
:100290000F01F60181936F01FFEFEF1AFF0AE0CF24
:1002A0008093730084E8809374008091740087FFCA
:1002B000FCCF90917100987F81E0983209F080E046
:1002C0000895FF920F931F93CF93DF93062FF42E81
:1002D000152F60E00E94F500811581F0CF2DD12F00
:1002E0000C0F1D2F111DC017D10729F089910E94F5
:1002F00050018111F8CF84E980937400DF91CF9190
:100300001F910F91FF90089511BAF89489B78460F6
:1003100089BF88B7846088BFEAE6F0E08081808387
:100320007894089581E00E94CF00893838F491E0F4
:10033000883708F090E0892F880F089581E00895AC
:1003400080E00E94CF00893838F491E0883708F0C7
:1003500090E0892F880F089581E0089580913F05EE
:1003600093E0980F93708C7F892B80933F05982F93
:100370009370933021F48C7F826080933F050895C1
:1003800080913F0591E0980F93708C7F892B80932B
:100390003F05982F9370933019F48C7F80933F051D
:1003A0000895E7E3F5E0108211828FEF8283838363
:1003B000848380EF85838AE0868381EA8783EFE305
:1003C000F5E080818C7F80830895CF93DF9348E3AD
:1003D00051E060E070E080E090E00E942707C8E014
:1003E000D0E048E051E060E070E0CE010E942707D5
:1003F0002896C837D105A9F740E351E060E070E0E6
:1004000088E790E00E94270740E151E068E070E053
:1004100080E090E00E94270740E151E060E170E059
:1004200080E090E00E94270748E151E068E070E03A
:1004300088E790E00E94270748E151E060E170E022
:1004400088E790E00E94270748E251E068E170E009
:1004500080E090E00E942707C8E0D0E040E051E053
:1004600068E170E0CE010E9427072896C837D105C1
:10047000A9F740E251E068E170E088E790E0DF91A1
:10048000CF910C942707AF92BF92CF92DF92EF9259
:10049000FF920F931F93CF93DF93C82F48E351E050
:1004A00068E070E086E090E00E94270748E251E0B3
:1004B00060E170E086E090E00E9427073EE0E32ED6
:1004C000F12C01E010E0D0E0C017D1070CF043C0E0
:1004D0008E0183E0000F111F8A95E1F7680186E025
:1004E000C80ED11C40E351E068E070E0C6010E94F4
:1004F0002707045F1F4F40E151E060E070E0C80152
:100500000E94270748E251E060E170E086E090E059
:100510000E9427079EE0A92EB12CEE24E394F12C33
:10052000CE15DF052CF540E251E060E170E0C60138
:100530000E94270740E151E068E170E0C801DF91C7
:10054000CF911F910F91FF90EF90DF90CF90BF90D0
:10055000AF900C94270748E051E068E070E0C701D5
:100560000E9427070F5F1F4F88E0E80EF11CACCFF9
:1005700040E051E060E170E0C5010E9427078FEF85
:10058000E81AF80A88E0A80EB11CCACFCF92DF9211
:10059000EF92FF920F931F93CF93DF93C82ED12C2E
:1005A00098E0899FE001112448E251E067E070E0A3
:1005B000CE010C960E9427076496EE24E394F12C5A
:1005C0000EE010E00C191D09E016F106C4F140E23E
:1005D00051E067E070E088E790E00E94270740E183
:1005E00051E06FE070E081E690E00E94270748E26A
:1005F00051E061E170E081E690E00E94270740E071
:1006000051E061E170E088E690E00E94270740E059
:1006100051E061E170E080E790E00E94270740E050
:1006200051E061E170E088E790E0DF91CF911F91A8
:100630000F91FF90EF90DF90CF900C94270740E050
:1006400051E067E070E0CE010E9427078FEFE81AC3
:10065000F80A2896B9CFFF920F931F93CF93DF9399
:10066000C82F40E455E06FE070E085E790E00E941D
:10067000270740E455E06FE070E085E790E00E94D6
:10068000270740E455E06FE070E085E790E00E94C6
:1006900027070E94F306D0E005E710E08C2F6AE000
:1006A0000E94C007F82EE92FF0E0EE0FFF1FE05088
:1006B000FB4F408151816FE070E0C80128E0D29F7C
:1006C0008019910911240E9427078C2FCF2DDF5FFD
:1006D0008A3020F7DF91CF911F910F91FF900895FD
:1006E000863060F4843008F094C0823009F449C048
:1006F000833009F464C0813031F00895865082302F
:1007000008F48BC0089584E00E94C60248E952E0D4
:1007100064E070E08FE290E00E94270740E952E039
:1007200064E070E087E390E00E94270748ED52E024
:1007300064E070E08FE390E00E94270740ED52E014
:1007400064E070E087E490E00E94270748EB52E005
:1007500064E070E08FE490E00E94270748E852E0F0
:1007600064E070E087E590E00E94270740E852E0EF
:1007700064E070E08FE590E00E9427078FEF0C9413
:100780002B0384E00E94C60248E752E064E070E078
:100790008FE290E00E94270748EE52E064E070E0AC
:1007A00087E390E00E94270740E752E064E070E0B2
:1007B0008FE390E00E94270748EE52E0C1CF84E02B
:1007C0000E94C60240ED52E064E070E08FE290E0EB
:1007D0000E94270740EA52E064E070E087E390E07F
:1007E0000E94270748EB52E064E070E08FE390E05E
:1007F0000E94270740EA52E064E070E087E490E05E
:100800000E94270740E852E064E070E08FE490E047
:10081000B3CF87E00E94C602B1CF85E0FBCF0E9434
:10082000E8060E94E50184E00E94430240EC52E0A9
:100830006CE070E08AE090E00E94270748EE52E00A
:100840006CE070E082E190E00E94270748EB52E004
:100850006CE070E08AE190E00E94270740E652E0F9
:100860006CE070E082E290E00E94270748EF52E0DF
:1008700064E070E080E390E00E94270740EF52E0E0
:1008800064E070E088E390E00E94270748EE52E0C1
:1008900064E070E080E490E00E94270740EE52E0C0
:1008A00064E070E088E490E00E94270740E455E0AF
:1008B00064E070E08AE690E00E94270740ED52E095
:1008C0006CE070E080E390E00E94270748EE52E081
:1008D0006CE070E088E390E00E94270748EC52E06B
:1008E0006CE070E080E490E00E94270740EC52E06A
:1008F0006CE070E088E490E00E94270748EE52E048
:100900006CE070E080E590E00E94270748EB52E041
:100910006CE070E088E590E00E94270740EE52E02E
:100920006CE070E080E690E00E94270740E455E02C
:100930006CE070E08AE690E00E94270740EB52E00E
:1009400064E170E080E390E00E94270748EA52E00B
:1009500064E170E088E390E00E94270748EF52E0EE
:1009600064E170E080E490E00E94270740EA52E0F2
:1009700064E170E088E490E00E94270740EA52E0DA
:1009800064E170E080E590E00E94270740E455E0D4
:1009900064E170E08AE690E00E94270780913F05BD
:1009A0008370813051F0823089F040E151E064E0A1
:1009B00070E0811531F00C94F30640E151E06CE0F9
:1009C00070E082E790E00E942707F5CF40E151E018
:1009D00064E170E0F6CF853009F438C130F4811558
:1009E00041F0843009F4C6C00895873009F4EDC0A1
:1009F00008950E94E8060E94E50184E00E944302F7
:100A000040EC52E06CE070E08AE090E00E94270742
:100A100048EE52E06CE070E082E190E00E9427072F
:100A200048EB52E06CE070E08AE190E00E9427071A
:100A300040E652E06CE070E082E290E00E9427071E
:100A400048EF52E064E070E080E390E00E94270706
:100A500040EF52E064E070E088E390E00E942707F6
:100A600048EE52E064E070E080E490E00E942707E6
:100A700040EE52E064E070E088E490E00E942707D6
:100A800040E151E064E070E082E790E00E942707D7
:100A900040ED52E06CE070E080E390E00E942707B8
:100AA00048EE52E06CE070E088E390E00E94270797
:100AB00048EC52E06CE070E080E490E00E94270790
:100AC00040EC52E06CE070E088E490E00E94270780
:100AD00048EE52E06CE070E080E590E00E9427076D
:100AE00048EB52E06CE070E088E590E00E94270758
:100AF00040EE52E06CE070E080E690E00E94270754
:100B000040E455E06CE070E08AE690E00E94270740
:100B100040EB52E064E170E080E390E00E94270740
:100B200048EA52E064E170E088E390E00E94270721
:100B300048EF52E064E170E080E490E00E94270713
:100B400040EA52E064E170E088E490E00E94270708
:100B500040EA52E064E170E080E590E00E942707FF
:100B600040E455E064E170E08AE690E00E942707E7
:100B70000C94F3060E94E8060E94E50184E00E94BE
:100B8000430248EF52E06CE070E08AE090E00E949F
:100B9000270740EF52E06CE070E082E190E00E94B5
:100BA000270748EE52E06CE070E08AE190E00E9496
:100BB000270740EE52E06CE070E082E290E00E9495
:100BC000270781E00E947003D3CF0E94E8060E94AD
:100BD000E50187E00E94430240ED52E06CE070E0E6
:100BE0008AE090E00E94270748EE52E06CE070E057
:100BF00082E190E00E94270748EC52E06CE070E050
:100C00008AE190E00E94270740EC52E06CE070E03F
:100C100082E290E00E94270748EE52E06CE070E02C
:100C20008AE290E00E94270748EB52E06CE070E017
:100C300082E390E00E94270740EE52E06CE070E013
:100C40008AE390E00E94270784E0BCCF0E94E80678
:100C50000E94E50185E00E94430240EB52E06CE017
:100C600070E08AE090E00E94270748EA52E06CE0DA
:100C700070E082E190E00E94270748EF52E06CE0CC
:100C800070E08AE190E00E94270740EA52E06CE0C1
:100C900070E082E290E00E94270740EA52E06CE0B8
:100CA00070E08AE290E00E94270786E08BCF809177
:100CB0003F058370813039F0823039F0811107C0EF
:100CC00084E00C94EB0487E0FCCF85E0FACF089534
:100CD00002C0959587956A95E2F7817099270895E6
:100CE0009C0181E090E0FC0102C0EE0FFF1F6A95BD
:100CF000E2F7BF014130510521F4CF01822B932B44
:100D0000089560957095CB01822393230895CF9326
:100D1000DF93CDB7DEB76B970FB6F894DEBF0FBE8B
:100D2000CDBF8BE1E4E1F5E0DE01119601900D927B
:100D30008A95E1F7AE014F5F5F4F6BE18CE30E9454
:100D400061016B960FB6F894DEBF0FBECDBFDF9189
:100D5000CF910895CF93DF9300D000D000D00F92B1
:100D6000CDB7DEB787E0EFE2F5E0DE011196019046
:100D70000D928A95E1F7AE014F5F5F4F67E08CE31C
:100D80000E94610127960FB6F894DEBF0FBECDBF5B
:100D9000DF91CF910895CF93DF93EC01942FE42F4F
:100DA000E695E695E69580E8E89FF0011124E60FC8
:100DB000F11DCE0FDF1F422F50E09770692F70E0BA
:100DC000888190E00E9470068883DF91CF9108951A
:100DD000E0E0F3E080E092E0DF019C011D92215011
:100DE0003040E1F70895EF92FF920F931F93CF9356
:100DF000DF930E94AA06C0E0D0E060E08CE30E948E
:100E0000F5008115A9F080E40E945001CE018050C8
:100E10009D4F7C0100E010E0F70181917F010E946D
:100E20005001811529F00F5F1F4F00381105A1F700
:100E30000E94F100C058DF4FC115F2E0DF07E9F66C
:100E4000DF91CF911F910F91FF90EF9008955F92E6
:100E50006F927F928F929F92AF92BF92CF92DF92CA
:100E6000EF92FF920F931F93CF93DF93682E762E0E
:100E70007A0100E010E080E8A82EB12C97E0892EDE
:100E8000912CC0E0D0E06701C00ED11E572C500E4F
:100E9000F601208130E0C5010C2E02C095958795A2
:100EA0000A94E2F782239323892B89F0C4018C1BD7
:100EB0009D0B02C0359527958A95E2F7217033275F
:100EC000452D6C2F660D80E093E00E94CB062196A5
:100ED000C830D105E9F60F5F1F4F0830110589F6BC
:100EE000DF91CF911F910F91FF90EF90DF90CF9006
:100EF000BF90AF909F908F907F906F905F9008957C
:100F00000E94E8060C94F3069093900089B988E15A
:100F10008AB986E08093950008955D9BFECF8CB9D9
:100F200008955F9BFECF8CB108950F931F93CF93CD
:100F3000DF93EC018C01060F171FC017D10729F4AE
:100F4000DF91CF911F910F91089589910E948D0794
:100F5000F4CF0F931F93CF93DF93EC018C01060F17
:100F6000171FC017D10729F4DF91CF911F910F915F
:100F700008950E9491078993F4CF0E94BF00FFCF8C
:100F8000992778E0880F991F961708F0961B881FFD
:0C0F90007A95C9F780950895F894FFCF7A
:100F9C00000000000000FFFFFFFF00000000000049
:100FAC00C0C0C0C0C0C0C0C003030303030303031D
:100FBC00030303030303FFFFC0C0C0C0C0C0FFFF97
:100FCC00FFFF030303030303FFFFC0C0C0C0C0C087
:100FDC00003C464A52623C00003C42423E023C000D
:100FEC00003C423C42423C00007E020408102000BF
:100FFC00003C407C42423C00007E407C02027C0073
:10100C000042427E02020200007C023C02027C0092
:10101C000038440810207C000018383818181800C4
:10102C00007E040810207E000042241818181800B6
:10103C000042241818224200004242425A5A24000C
:10104C0000424242242418000042424242423E00E6
:10105C00007E181818181800003E403C02027C0054
:10106C00007E42427C424200007E4242427E0400AC
:10107C00007E42427E404000007E424242427E0060
:10108C00004262524A4642000042665A42424200C4
:10109C000040404040407E0000666870706866000A
:1010AC00000C0C0C0C6C7C00007E181818187E00C0
:1010BC00004242427E424200007E42404E427E004E
:1010CC00007E40407C404000007E407C40407E00E2
:1010DC00007C424242427C00007E404040407E0008
:1010EC00007C427C42427C00007E42427E424200B6
:1010FC00005E527252525E000040407E42427E00C0
:10110C00001E222222224200007E023C02027E00AD
:10111C00001842464A526200004242427A4A7A0021
:10112C00007E42427E404000006668707068660037
:10113C000042464A52624200007E42424242420013
:10114C00007E424242427E00004242427E424200C7
:10115C000042665A42424200007E404040404000FD
:10116C00007E404040407E00007E42427E42420073
:10117C00007E181818181800007E40407C407E0035
:10118C00007C427C42427C0000444444447E020089
:10119C00FF01010101010101FDFDFDFDFDFDFD0151
:1011AC00010101010101FDFDFDFDFDFDFDFDFDFD4B
:1011BC00FDFDFDFDFDFDFDFDFDFDFDFDFDFDFDFD53
:1011CC00FDFDFDFDFDFDFDFDFD0101010101010127
:1011DC00FDFDFDFDFDFDFDFDFDFDFDFDFDFDFDFD33
:1011EC00FDFDFDFDFD0101010101010101010101F7
:1011FC000101013D153D013D2121013D151D013D23
:10120C00113D013D153D01013D253D01053D01FF10
:10121C00FF00000000000000FFFFFFFFFFFFFFFECC
:10122C00FEFEFEFEFEFEFFFFFFFFFFFFFF010101C2
:10123C0001010101FFFFFFFFFFFFFF0101010101A0
:10124C000101FFFFFFFFFFFFFF0000000000000097
:10125C00FFFFFFFFFFFFFF01010101010101FFFF84
:10126C00FFFFFFFFFF000000000000000000000077
:10127C000000000000000000000000000000000062
:10128C00000000000000000000000000000000FF53
:10129C00FF00000000000000FFFFFFFFFFFFFF004A
:1012AC00000000000000FFFFFFFFFFFFFF00000039
:1012BC0000000000FFFFFFFFFFFFFF000000000029
:1012CC000000FFFFFFFFFFFFFF7F7F7F7F7F7F7FA0
:1012DC00FFFFFFFFFFFFFF7F7F7F7F7F7F7F808090
:1012EC0080808080800000008080808080808000F2
:1012FC0000000000000000000000000000000000E2
:10130C00000000000000000000000000000000FFD2
:10131C00FF80808080808080BFBFBFBFBFBFBF8089
:10132C00808080808080BFBFBFBFBFBFBF808080F8
:10133C0080808080BFBFBFBFBFBFBF8080808080E8
:10134C008080BFBFBFBFBFBFBF80808080808080D8
:10135C00BFBFBFBFBFBFBF80808080808080BFBF4A
:10136C00BFBFBFBFBF808080B1B1BFBFBFB1B180B5
:10137C0080BFBF8383BFBE8080BFBFB3B3B3B38016
:10138C00808080B0B080808080808080808080FF72
:10139C0040018801800178017001680160015801E9
:1013AC005001480100AED580A81FD300408D14DB3E
:1013BC0040A4A6DA02818FD9F12000A0C01FAF0093
:0613CC0022000321007F56
:00000001FF
