:100000000C9446000C9465000C9465000C946700F9
:100010000C9465000C9465000C9465000C946500CC
:100020000C9465000C9465000C9465000C946500BC
:100030000C9465000C9465000C9465000C946500AC
:100040000C9465000C9465000C9465000C9465009C
:100050000C9465000C9465000C9465000C9465008C
:100060000C9465000C9465000C9465000C9465007C
:100070000C9465000C9465000C9465000C9465006C
:100080000C9465000C9465000C94650011241FBE4F
:10009000CFEFD0E1DEBFCDBF15E0A0E0B1E0E4E1FD
:1000A000F3E100E00BBF02C007900D92A634B10748
:1000B000D9F725E0A6E4B5E001C01D92A035B2074E
:1000C000E1F70E9456090C9481090C9400001F92DC
:1000D0000F920FB60F9211240BB60F922F933F93EE
:1000E0004F935F936F937F938F939F93AF93BF9340
:1000F000EF93FF93F8940E94A107FF91EF91BF91B6
:10010000AF919F918F917F916F915F914F913F91AF
:100110002F910F900BBE0F900FBE0F901F90189550
:1001200080E895E20E941D091BBA8FEF8ABB12BAC4
:100130000E942A010E94DC070E9448080E941602C1
:100140000E94A4000C94D10110926100379A86B1EC
:10015000876086B93E9A089597B18770987F892BFA
:1001600087B9369A3699FECF84B195B19695879521
:100170009695879508950F931F93CF93DF93CDB7EF
:10018000DEB7E0970FB6F894DEBF0FBECDBF9C017F
:100190008E010F5F1F4F80E3D8011D928A95E9F70A
:1001A000F90165819681A801F80180E0961740F079
:1001B000861710F0981730F41082118212820EC048
:1001C0008430C0F3D90113967C91139770831296F3
:1001D0007C911297718314967C9172838F5F339612
:1001E000803121F7D801D09661E027E030E0FA01B4
:1001F000808190E0022E02C0959587950A94E2F7DF
:1002000080FF20C08BB38F5F8BBB0000000000001D
:10021000000000001BBA2150310948F74F5F5F4FC3
:10022000A417B50711F785E88A95F1F70000E09665
:100230000FB6F894DEBF0FBECDBFDF91CF911F91F7
:100240000F9108956BBB1BBA000000000000000076
:100250000000E1CF1092710080E280937000E4E72B
:10026000F0E08081846080830895F89485EA80932B
:1002700074008091740087FFFCCF089584E9809317
:1002800074000895CF93C82FCC0F613009F4C1607A
:100290000E943501C093730085E8809374008091BB
:1002A000740087FFFCCF90917100987F81E09831B6
:1002B00009F080E0CF91089584E8809374008091E4
:1002C000740087FFFCCF809173000895CF92DF9276
:1002D000EF92FF920F931F93CF93DF93C62F8A0164
:1002E00061E00E9442018115B1F084EC80937400BA
:1002F0006801E12CF12CC150DD0BEC16FD06A4F0D9
:1003000084E880937400C00FD11F0E945C01888331
:1003100084E980937400DF91CF911F910F91FF903A
:10032000EF90DF90CF9008950E945C01F6018193D9
:100330006F01FFEFEF1AFF0AE0CF8093730084E8AC
:10034000809374008091740087FFFCCF90917100BE
:10035000987F81E0983209F080E00895FF920F9332
:100360001F93CF93DF93062FF42E152F60E00E948A
:100370004201811581F0CF2DD12F0C0F1D2F111DA2
:10038000C017D10729F089910E949D018111F8CFF2
:1003900084E980937400DF91CF911F910F91FF90BA
:1003A00008958BEF81BBF89489B7846089BF88B7C3
:1003B000846088BFEAE6F0E08081808378940895C5
:1003C00080E00E94AC008058089581E00E94AC005B
:1003D000893838F491E0883708F090E0892F880F49
:1003E000089581E0089580914F0593E0980F9370F0
:1003F0008C7F892B80934F05982F9370933021F435
:100400008C7F826080934F05089580914F0591E025
:10041000980F93708C7F892B80934F05982F937042
:10042000933019F48C7F80934F050895E6E4F5E04E
:1004300010828FEF82831382148215828AE0868372
:10044000878381EA8087EFE4F5E080818C7F808379
:1004500086E495E00C94BB00CF93DF9348E351E032
:1004600060E070E080E090E00E947C08C8E0D0E0AE
:1004700048E051E060E070E0CE010E947C082896E0
:10048000C837D105A9F740E351E060E070E088E7A4
:1004900090E00E947C0840E151E068E070E080E07C
:1004A00090E00E947C0840E151E060E170E080E073
:1004B00090E00E947C0848E151E068E070E088E745
:1004C00090E00E947C0848E151E060E170E088E73C
:1004D00090E00E947C0848E251E068E170E080E032
:1004E00090E00E947C08C8E0D0E040E051E068E184
:1004F00070E0CE010E947C082896C837D105A9F784
:1005000040E251E068E170E088E790E0DF91CF9150
:100510000C947C08AF92BF92CF92DF92EF92FF9241
:100520000F931F93CF93DF93C82F48E351E068E008
:1005300070E086E090E00E947C0848E251E060E1D3
:1005400070E086E090E00E947C083EE0E32EF12C13
:1005500001E010E0D0E0C017D1070CF043C08E01DD
:1005600083E0000F111F8A95E1F7680186E0C80E4D
:10057000D11C40E351E068E070E0C6010E947C08B5
:10058000045F1F4F40E151E060E070E0C8010E944D
:100590007C0848E251E060E170E086E090E00E9473
:1005A0007C089EE0A92EB12CEE24E394F12CCE150C
:1005B000DF052CF540E251E060E170E0C6010E94E9
:1005C0007C0840E151E068E170E0C801DF91CF9123
:1005D0001F910F91FF90EF90DF90CF90BF90AF9061
:1005E0000C947C0848E051E068E070E0C7010E948C
:1005F0007C080F5F1F4F88E0E80EF11CACCF40E095
:1006000051E060E170E0C5010E947C088FEFE81ABC
:10061000F80A88E0A80EB11CCACFCF92DF92EF9201
:10062000FF920F931F93CF93DF93C82ED12C98E0A6
:10063000899FE001112448E251E067E070E0CE01BB
:100640000C960E947C082E96EE24E394F12C0EE08A
:1006500010E00C191D09E016F106C4F140E251E06A
:1006600067E070E088E790E00E947C0840E151E09C
:100670006FE070E081E690E00E947C0848E251E083
:1006800061E170E081E690E00E947C0840E051E08A
:1006900061E170E088E690E00E947C0840E051E073
:1006A00061E170E080E790E00E947C0840E051E06A
:1006B00061E170E088E790E0DF91CF911F910F91A9
:1006C000FF90EF90DF90CF900C947C0864E070E096
:1006D000CE010E94D50840E051E067E070E0CE0115
:1006E00006960E947C088FEFE81AF80A2896B3CF86
:1006F00064E070E085E790E00E94D508E09146054F
:10070000F0E0EE0FFF1FE05FFA4F4081518164E09F
:1007100070E085E790E00E947C080C944808FF9206
:100720000F931F93CF93DF93C82F6FE070E085E79F
:1007300090E00E94D5086FE070E08DE690E00E94A6
:10074000D5086FE070E085E690E00E94D508D0E023
:1007500005E710E08C2F6AE00E945E09F82EE92F71
:10076000F0E0EE0FFF1FE05FFA4F408151816FE034
:1007700070E0C80128E0D29F8019910911240E94DD
:100780007C088C2FCF2DDF5F8A3020F7DF91CF914F
:100790001F910F91FF900C9448081F93CF93DF9304
:1007A000EC0180914605811104C0DF91CF911F912A
:1007B000089578940E94E001182F811591F3988193
:1007C0009F5F9F7098830E94E0018111FCCF812F71
:1007D0006AE00E946A099881890F88830E948F03CA
:1007E000E0CF0E943D080E942C0284E00E948A0211
:1007F00040ED52E06CE070E08AE090E00E947C08FE
:1008000048EF52E06CE070E082E190E00E947C08EA
:1008100048EC52E06CE070E08AE190E00E947C08D5
:1008200040E752E06CE070E082E290E00E947C08D9
:1008300048E053E064E070E080E390E00E947C08D0
:1008400040E053E064E070E088E390E00E947C08C0
:1008500048EF52E064E070E080E490E00E947C08A1
:1008600040EF52E064E070E088E490E00E947C0891
:1008700064E070E08AE690E00E94D50840EE52E025
:100880006CE070E080E390E00E947C0848EF52E06A
:100890006CE070E088E390E00E947C0848ED52E054
:1008A0006CE070E080E490E00E947C0840ED52E053
:1008B0006CE070E088E490E00E947C0848EF52E031
:1008C0006CE070E080E590E00E947C0848EC52E02B
:1008D0006CE070E088E590E00E947C0840EF52E018
:1008E0006CE070E080E690E00E947C086CE070E0D4
:1008F0008AE690E00E94D50840EC52E064E170E0A6
:1009000080E390E00E947C0848EB52E064E170E0F4
:1009100088E390E00E947C0848E053E064E170E0E6
:1009200080E490E00E947C0840EB52E064E170E0DB
:1009300088E490E00E947C0840EB52E064E170E0C3
:1009400080E590E00E947C0864E170E08AE690E037
:100950000E94D50880914F058370813051F082301C
:1009600089F048E151E064E070E0811531F00C94C9
:10097000480848E151E06CE070E08AE690E00E94AF
:100980007C08F5CF48E151E064E170E0F6CF80915A
:1009900046058111089578940E94E501813049F05F
:1009A000823051F00E94E5018111FCCF0E94F103D9
:1009B000EECF0E94F301F6CF0E940502F3CF8150E3
:1009C000873008F071C1E82FF0E0ED57F64F0C9436
:1009D000780984E00E940D0348EA52E064E070E088
:1009E0008FE290E00E947C0840EA52E064E070E010
:1009F00087E390E00E947C0848EE52E064E070E0FB
:100A00008FE390E00E947C0840EE52E064E070E0EA
:100A100087E490E00E947C0848EC52E064E070E0DB
:100A20008FE490E00E947C0848E952E064E070E0C6
:100A300087E590E00E947C0840E952E064E070E0C5
:100A40008FE590E00E947C08809148050C948F030C
:100A500084E00E940D0348E852E064E070E08FE219
:100A600090E00E947C0848EF52E064E070E087E389
:100A700090E00E947C0840E852E064E070E08FE380
:100A800090E00E947C0848EF52E064E070E087E468
:100A900090E00E947C0848EC52E064E070E08FE453
:100AA00090E00E947C0848E952E064E070E087E54D
:100AB00090E00E947C0840E952E064E070E08FE53D
:100AC00090E00E947C0880914905C0CF84E00E949C
:100AD0000D0340EE52E064E070E08FE290E00E948F
:100AE0007C0840EB52E064E070E087E390E00E9415
:100AF0007C0848EC52E064E070E08FE390E00E94F4
:100B00007C0840EB52E064E070E087E490E00E94F3
:100B10007C0840E952E064E070E08FE490E00E94DD
:100B20007C0880914A0592CF87E00E940D0348EB34
:100B300052E064E070E087E490E00E947C0848EFB7
:100B400052E064E070E08FE490E00E947C0840EAAC
:100B500052E064E070E087E590E00E947C0840E0AD
:100B600053E064E070E08FE590E00E947C0848E983
:100B700052E064E070E087E690E00E947C0840E983
:100B800052E064E070E08FE690E00E947C08809183
:100B90004B055CCF87E00E940D0340E053E064E02A
:100BA00070E087E490E00E947C0840EF52E064E04F
:100BB00070E08FE490E00E947C0840EC52E064E03A
:100BC00070E087E590E00E947C0840EA52E064E033
:100BD00070E08FE590E00E947C0840EC52E064E019
:100BE00070E087E690E00E947C0840E952E064E013
:100BF00070E08FE690E00E947C0880914C0526CF43
:100C000085E00E940D0348EA51E064E070E087E36C
:100C100090E00E947C0840EC52E064E070E08FE3DA
:100C200090E00E947C0848E652E064E070E087E4CF
:100C300090E00E947C0880914D0508CF85E00E94DD
:100C40000D0340E053E064E070E087E390E00E9431
:100C50007C0848EF52E064E070E08FE390E00E948F
:100C60007C0840EA52E064E070E087E490E00E9493
:100C70007C0840EE52E064E070E08FE490E00E9477
:100C80007C0840EB52E064E070E087E590E00E9471
:100C90007C0848ED51E064E070E08FE590E00E9450
:100CA0007C0880914E05D2CE0895CF93C82F0E9424
:100CB0003D080E942C02C43009F4C2C0C53009F4BA
:100CC00002C1C111BBC084E00E948A0240ED52E023
:100CD0006CE070E08AE090E00E947C0848EF52E00F
:100CE0006CE070E082E190E00E947C0848EC52E009
:100CF0006CE070E08AE190E00E947C0840E752E0FE
:100D00006CE070E082E290E00E947C0848E053E0F2
:100D100064E070E080E390E00E947C0840E053E0F3
:100D200064E070E088E390E00E947C0848EF52E0C5
:100D300064E070E080E490E00E947C0840EF52E0C4
:100D400064E070E088E490E00E947C0848E151E0B3
:100D500064E070E08AE690E00E947C0840EE52E099
:100D60006CE070E080E390E00E947C0848EF52E085
:100D70006CE070E088E390E00E947C0848ED52E06F
:100D80006CE070E080E490E00E947C0840ED52E06E
:100D90006CE070E088E490E00E947C0848EF52E04C
:100DA0006CE070E080E590E00E947C0848EC52E046
:100DB0006CE070E088E590E00E947C0840EF52E033
:100DC0006CE070E080E690E00E947C086CE070E0EF
:100DD0008AE690E00E94D50840EC52E064E170E0C1
:100DE00080E390E00E947C0848EB52E064E170E010
:100DF00088E390E00E947C0848E053E064E170E002
:100E000080E490E00E947C0840EB52E064E170E0F6
:100E100088E490E00E947C0840EB52E064E170E0DE
:100E200080E590E00E947C0864E170E08AE690E052
:100E30000E94D5080E94480810924605CF91089557
:100E4000F89484E00E948A0248E053E06CE070E08D
:100E50008AE090E00E947C0840E053E06CE070E0A3
:100E600082E190E00E947C0848EF52E06CE070E084
:100E70008AE190E00E947C0840EF52E06CE070E074
:100E800082E290E00E947C0881E0809346050E9407
:100E9000DF0488E495E00E94CD03F89482E080931B
:100EA00046050E94DF0489E495E00E94CD03F89492
:100EB00083E0809346050E94DF048AE495E00E9467
:100EC000CD03F894B9CFF89485E00E948A0240ECF3
:100ED00052E06CE070E08AE090E00E947C0848EB11
:100EE00052E06CE070E082E190E00E947C0848E013
:100EF00053E06CE070E08AE190E00E947C0840EBF7
:100F000052E06CE070E082E290E00E947C0840EBEE
:100F100052E06CE070E08AE290E00E947C0886E09B
:100F2000809346050E94DF048DE495E00E94CD0386
:100F3000F89487E0809346050E94DF048EE495E0F4
:100F4000BECF829BFECF80914605811112C0809159
:100F50004F058370813039F0823049F081110BC028
:100F600084E00C9455060E943D080C942C0285E008
:100F7000F8CF10924605089502C0959587956A9519
:100F8000E2F78170992708959C01FA0181E090E0D1
:100F9000AC0102C0440F551F6A95E2F7BA013097C1
:100FA00031F0319711F4242B372BC9010895609546
:100FB000709526233723F9CFCF93DF93CDB7DEB7D4
:100FC0006B970FB6F894DEBF0FBECDBF8BE1E4E2A6
:100FD000F5E0DE01119601900D928A95E1F7AE01E0
:100FE0004F5F5F4F6BE18CE30E94AE016B960FB6D3
:100FF000F894DEBF0FBECDBFDF91CF910895CF93A0
:10100000DF9300D000D000D00F92CDB7DEB787E0DD
:10101000EFE3F5E0DE01119601900D928A95E1F77C
:10102000AE014F5F5F4F67E08CE30E94AE012796F1
:101030000FB6F894DEBF0FBECDBFDF91CF910895FC
:10104000CF93DF93EC01942FE42FE695E695E69598
:1010500080E8E89FF0011124E60FF11DCE0FDF1F9D
:10106000422F50E09770692F70E0888190E00E94D5
:10107000C4078883DF91CF910895E0E1F3E080E039
:1010800092E0DF019C011D9221503040E1F708956C
:10109000EF92FF920F931F93CF93DF930E94FF076E
:1010A000C0E0D0E060E08CE30E9442018115A9F02D
:1010B00080E40E949D01CE01805F9C4F7C0100E096
:1010C00010E0F70181917F010E949D01811529F0B7
:1010D0000F5F1F4F00381105A1F70E943E01C05855
:1010E000DF4FC115F2E0DF07E9F6DF91CF911F91E5
:1010F0000F91FF90EF9008955F926F927F928F9281
:101100009F92AF92BF92CF92DF92EF92FF920F9396
:101110001F93CF93DF93682E762E7A0100E010E0C4
:1011200080E8A82EB12C97E0892E912CC0E0D0E069
:101130006701C00ED11E572C500EF601208130E001
:10114000C5010C2E02C0959587950A94E2F782237B
:101150009323892B89F0C4018C1B9D0B02C035950C
:1011600027958A95E2F721703327452D6C2F660D60
:1011700080E193E00E9420082196C830D105E9F66D
:101180000F5F1F4F0830110589F6DF91CF911F9136
:101190000F91FF90EF90DF90CF90BF90AF909F9016
:1011A0008F907F906F905F900895FF920F931F93A1
:1011B000CF93DF93182FC62F88E0F82EF60E08E0A5
:1011C000010FD12F20E04C2F6D2F80E193E00E9482
:1011D0002008DF5FD013F6CFCF5FCF11F2CFDF91C2
:1011E000CF911F910F91FF9008950E943D080C949C
:1011F00048080F931F93CF93DF930E94FF07C4E02B
:10120000D0E060E08CE30E944201811569F080E447
:101210000E949D0100E810E080E00E949D01811580
:1012200019F001501040C1F70E943E01219749F783
:10123000DF91CF911F910F9108959093900089B9FC
:1012400088E18AB986E08093950008955D9BFECF82
:101250008CB908955F9BFECF8CB108950F931F93B7
:10126000CF93DF93EC018C01060F171FC017D10736
:1012700029F4DF91CF911F910F91089589910E94D8
:101280002609F4CF0F931F93CF93DF93EC018C01CA
:10129000060F171FC017D10729F4DF91CF911F91B7
:1012A0000F9108950E942A098993F4CF0E9490001B
:1012B00080E00E9455060E94C704FACF992778E083
:1012C000880F991F961708F0961B881F7A95C9F703
:1012D0008095089587FB082E062687FD819567FD7A
:1012E00061950E945E090EF4919507FC8195089521
:1012F000EE0FFF1F0024001C0BBE0790F691E02D9F
:101300000994F894FFCFE904280566059405CA05F9
:0413100000061E06AF
:10131400000000000000FFFFFFFF000000000000CD
:10132400C0C0C0C0C0C0C0C00303030303030303A1
:10133400030303030303FFFFC0C0C0C0C0C0FFFF1B
:10134400FFFF030303030303FFFFC0C0C0C0C0C00B
:10135400003C464A52623C00003C42423E023C0091
:10136400003C423C42423C00007E02040810200043
:10137400003C407C42423C00007E407C02027C00F7
:101384000042427E02020200007C023C02027C0017
:101394000038440810207C00001838381818180049
:1013A400FF818181818181FF007E040810207E00FD
:1013B4000042241818181800004224181824420067
:1013C400004242425A5A2400004242422424180055
:1013D4000042424242423E00007E1818181818008B
:1013E400003E403C02027C00007E42427C424200BD
:1013F400007E4242427E0400007E42427E40400023
:10140400007E424242427E00004262524A4642000C
:101414000042665A424242000040404040407E0042
:101424000066687070686600000C0C0C0C6C7C0024
:10143400007E181818187E00004242427E42420084
:10144400007E42404E427E00007E40407C40400090
:10145400007E407C40407E00007C424242427C0050
:10146400007E404040407E00007C427C42427C0042
:10147400007E42427E424200001C2424247E42001C
:10148400005E527252525E000040407E42427E0034
:10149400001E222222224200007E023C02027E0022
:1014A400001842464A526200004242427A4A7A0096
:1014B400007E42427E4040000066687070686600AC
:1014C4000042464A52624200007E42424242420088
:1014D400007E424242427E00004242427E4242003C
:1014E4000042665A42424200007E40404040400072
:1014F400007E404040407E00007E42427E424200E8
:10150400007E181818181800007E40407C407E00A9
:10151400007C427C42427C0000444444447E0200FD
:10152400FF01010101010101FDFDFDFDFDFDFD01C5
:10153400010101010101FDFDFDFDFDFDFDFDFDFDBF
:10154400FDFDFDFDFDFDFDFDFDFDFDFDFDFDFDFDC7
:10155400FDFDFDFDFDFDFDFDFD010101010101019B
:10156400FDFDFDFDFDFDFDFDFDFDFDFDFDFDFDFDA7
:10157400FDFDFDFDFD01010101010101010101016B
:101584000101013D153D013D2121013D151D013D97
:10159400113D013D153D01013D253D01053D01FF85
:1015A400FF00000000000000FFFFFFFFFFFFFFFE41
:1015B400FEFEFEFEFEFEFFFFFFFFFFFFFF01010137
:1015C40001010101FFFFFFFFFFFFFF010101010115
:1015D4000101FFFFFFFFFFFFFF000000000000000C
:1015E400FFFFFFFFFFFFFF01010101010101FFFFF9
:1015F400FFFFFFFFFF0000000000000000000000EC
:1016040000000000000000000000000000000000D6
:10161400000000000000000000000000000000FFC7
:10162400FF00000000000000FFFFFFFFFFFFFF00BE
:10163400000000000000FFFFFFFFFFFFFF000000AD
:1016440000000000FFFFFFFFFFFFFF00000000009D
:101654000000FFFFFFFFFFFFFF7F7F7F7F7F7F7F14
:10166400FFFFFFFFFFFFFF7F7F7F7F7F7F7F808004
:101674008080808080000000808080808080800066
:101684000000000000000000000000000000000056
:10169400000000000000000000000000000000FF47
:1016A400FF80808080808080BFBFBFBFBFBFBF80FE
:1016B400808080808080BFBFBFBFBFBFBF8080806D
:1016C40080808080BFBFBFBFBFBFBF80808080805D
:1016D4008080BFBFBFBFBFBFBF808080808080804D
:1016E400BFBFBFBFBFBFBF80808080808080BFBFBF
:1016F400BFBFBFBFBF808080B1B1BFBFBFB1B1802A
:1017040080BFBF8383BFBE8080BFBFB3B3B3B3808A
:10171400808080B0B080808080808080808080FFE6
:10172400400188018001780170016801600158015D
:101734005001480100AED580A81FD300408D14DBB2
:1017440040A4A6DA02818FD9F12000A0C01FAF0007
:0617540022000321007FCA
:00000001FF
